{
  "_format": "hh-sol-artifact-1",
  "contractName": "Token20",
  "sourceName": "contracts/Token20.sol",
  "abi": [
    {
      "inputs": [],
      "stateMutability": "nonpayable",
      "type": "constructor"
    },
    {
      "anonymous": false,
      "inputs": [
        {
          "indexed": true,
          "internalType": "address",
          "name": "owner",
          "type": "address"
        },
        {
          "indexed": true,
          "internalType": "address",
          "name": "spender",
          "type": "address"
        },
        {
          "indexed": false,
          "internalType": "uint256",
          "name": "value",
          "type": "uint256"
        }
      ],
      "name": "Approval",
      "type": "event"
    },
    {
      "anonymous": false,
      "inputs": [
        {
          "indexed": true,
          "internalType": "address",
          "name": "from",
          "type": "address"
        },
        {
          "indexed": true,
          "internalType": "address",
          "name": "to",
          "type": "address"
        },
        {
          "indexed": false,
          "internalType": "uint256",
          "name": "value",
          "type": "uint256"
        }
      ],
      "name": "Transfer",
      "type": "event"
    },
    {
      "inputs": [
        {
          "internalType": "address",
          "name": "owner",
          "type": "address"
        },
        {
          "internalType": "address",
          "name": "spender",
          "type": "address"
        }
      ],
      "name": "allowance",
      "outputs": [
        {
          "internalType": "uint256",
          "name": "",
          "type": "uint256"
        }
      ],
      "stateMutability": "view",
      "type": "function"
    },
    {
      "inputs": [
        {
          "internalType": "address",
          "name": "spender",
          "type": "address"
        },
        {
          "internalType": "uint256",
          "name": "amount",
          "type": "uint256"
        }
      ],
      "name": "approve",
      "outputs": [
        {
          "internalType": "bool",
          "name": "",
          "type": "bool"
        }
      ],
      "stateMutability": "nonpayable",
      "type": "function"
    },
    {
      "inputs": [
        {
          "internalType": "address",
          "name": "account",
          "type": "address"
        }
      ],
      "name": "balanceOf",
      "outputs": [
        {
          "internalType": "uint256",
          "name": "",
          "type": "uint256"
        }
      ],
      "stateMutability": "view",
      "type": "function"
    },
    {
      "inputs": [],
      "name": "decimals",
      "outputs": [
        {
          "internalType": "uint8",
          "name": "",
          "type": "uint8"
        }
      ],
      "stateMutability": "view",
      "type": "function"
    },
    {
      "inputs": [
        {
          "internalType": "address",
          "name": "spender",
          "type": "address"
        },
        {
          "internalType": "uint256",
          "name": "subtractedValue",
          "type": "uint256"
        }
      ],
      "name": "decreaseAllowance",
      "outputs": [
        {
          "internalType": "bool",
          "name": "",
          "type": "bool"
        }
      ],
      "stateMutability": "nonpayable",
      "type": "function"
    },
    {
      "inputs": [
        {
          "internalType": "address",
          "name": "user",
          "type": "address"
        }
      ],
      "name": "findBalance",
      "outputs": [
        {
          "internalType": "uint256",
          "name": "",
          "type": "uint256"
        }
      ],
      "stateMutability": "view",
      "type": "function"
    },
    {
      "inputs": [],
      "name": "findSupply",
      "outputs": [
        {
          "internalType": "uint256",
          "name": "",
          "type": "uint256"
        }
      ],
      "stateMutability": "view",
      "type": "function"
    },
    {
      "inputs": [
        {
          "internalType": "address",
          "name": "spender",
          "type": "address"
        },
        {
          "internalType": "uint256",
          "name": "addedValue",
          "type": "uint256"
        }
      ],
      "name": "increaseAllowance",
      "outputs": [
        {
          "internalType": "bool",
          "name": "",
          "type": "bool"
        }
      ],
      "stateMutability": "nonpayable",
      "type": "function"
    },
    {
      "inputs": [
        {
          "internalType": "address",
          "name": "user",
          "type": "address"
        },
        {
          "internalType": "uint256",
          "name": "amt",
          "type": "uint256"
        }
      ],
      "name": "mintToken",
      "outputs": [],
      "stateMutability": "nonpayable",
      "type": "function"
    },
    {
      "inputs": [],
      "name": "name",
      "outputs": [
        {
          "internalType": "string",
          "name": "",
          "type": "string"
        }
      ],
      "stateMutability": "view",
      "type": "function"
    },
    {
      "inputs": [],
      "name": "symbol",
      "outputs": [
        {
          "internalType": "string",
          "name": "",
          "type": "string"
        }
      ],
      "stateMutability": "view",
      "type": "function"
    },
    {
      "inputs": [],
      "name": "totalSupply",
      "outputs": [
        {
          "internalType": "uint256",
          "name": "",
          "type": "uint256"
        }
      ],
      "stateMutability": "view",
      "type": "function"
    },
    {
      "inputs": [
        {
          "internalType": "address",
          "name": "to",
          "type": "address"
        },
        {
          "internalType": "uint256",
          "name": "amount",
          "type": "uint256"
        }
      ],
      "name": "transfer",
      "outputs": [
        {
          "internalType": "bool",
          "name": "",
          "type": "bool"
        }
      ],
      "stateMutability": "nonpayable",
      "type": "function"
    },
    {
      "inputs": [
        {
          "internalType": "address",
          "name": "from",
          "type": "address"
        },
        {
          "internalType": "address",
          "name": "to",
          "type": "address"
        },
        {
          "internalType": "uint256",
          "name": "amount",
          "type": "uint256"
        }
      ],
      "name": "transferFrom",
      "outputs": [
        {
          "internalType": "bool",
          "name": "",
          "type": "bool"
        }
      ],
      "stateMutability": "nonpayable",
      "type": "function"
    },
    {
      "inputs": [
        {
          "internalType": "address",
          "name": "user",
          "type": "address"
        },
        {
          "internalType": "uint256",
          "name": "amt",
          "type": "uint256"
        }
      ],
      "name": "transferOne",
      "outputs": [],
      "stateMutability": "nonpayable",
      "type": "function"
    }
  ],
  "bytecode": "0x608060405234801561001057600080fd5b5060408051808201825260078152660546f6b656e32360cc1b6020808301918252835180850190945260058452640746b6e32360dc1b90840152815191929161005b91600391610077565b50805161006f906004906020840190610077565b50505061014b565b82805461008390610110565b90600052602060002090601f0160209004810192826100a557600085556100eb565b82601f106100be57805160ff19168380011785556100eb565b828001600101855582156100eb579182015b828111156100eb5782518255916020019190600101906100d0565b506100f79291506100fb565b5090565b5b808211156100f757600081556001016100fc565b60028104600182168061012457607f821691505b6020821081141561014557634e487b7160e01b600052602260045260246000fd5b50919050565b610bb1806200015b6000396000f3fe608060405234801561001057600080fd5b50600436106100f55760003560e01c806379c6506811610097578063c169f87211610066578063c169f872146101d8578063cfba4fe0146101e0578063dbb57a4b146101f3578063dd62ed3e14610206576100f5565b806379c650681461019557806395d89b41146101aa578063a457c2d7146101b2578063a9059cbb146101c5576100f5565b806323b872dd116100d357806323b872dd1461014d578063313ce56714610160578063395093511461016f57806370a0823114610182576100f5565b806306fdde03146100fa578063095ea7b31461011857806318160ddd1461013b575b600080fd5b61010261023f565b60405161010f9190610aa8565b60405180910390f35b61012b610126366004610a7f565b6102d1565b604051901515815260200161010f565b6002545b60405190815260200161010f565b61012b61015b366004610a44565b6102e9565b6040516012815260200161010f565b61012b61017d366004610a7f565b61030d565b61013f6101903660046109f1565b61034c565b6101a86101a3366004610a7f565b61036b565b005b6101026103a6565b61012b6101c0366004610a7f565b6103b5565b61012b6101d3366004610a7f565b61044c565b61013f61045a565b61013f6101ee3660046109f1565b61046a565b6101a8610201366004610a7f565b61047b565b61013f610214366004610a12565b6001600160a01b03918216600090815260016020908152604080832093909416825291909152205490565b60606003805461024e90610b2a565b80601f016020809104026020016040519081016040528092919081815260200182805461027a90610b2a565b80156102c75780601f1061029c576101008083540402835291602001916102c7565b820191906000526020600020905b8154815290600101906020018083116102aa57829003601f168201915b5050505050905090565b6000336102df818585610577565b5060019392505050565b6000336102f785828561069b565b61030285858561072d565b506001949350505050565b3360008181526001602090815260408083206001600160a01b03871684529091528120549091906102df9082908690610347908790610afb565b610577565b6001600160a01b0381166000908152602081905260409020545b919050565b61037582826108fb565b6001600160a01b0382166000908152600560205260408120805483929061039d908490610afb565b90915550505050565b60606004805461024e90610b2a565b3360008181526001602090815260408083206001600160a01b03871684529091528120549091908381101561043f5760405162461bcd60e51b815260206004820152602560248201527f45524332303a2064656372656173656420616c6c6f77616e63652062656c6f77604482015264207a65726f60d81b60648201526084015b60405180910390fd5b6103028286868403610577565b6000336102df81858561072d565b600061046560025490565b905090565b60006104758261034c565b92915050565b336000908152600560205260409020546104ce5760405162461bcd60e51b8152602060048201526014602482015273496e73756666696369656e742042616c616e636560601b6044820152606401610436565b8060011461051e5760405162461bcd60e51b815260206004820152601860248201527f416d6f756e742063616e6e6f7420657863656564206f6e6500000000000000006044820152606401610436565b610528828261044c565b50336000908152600560205260408120805460019290610549908490610b13565b90915550506001600160a01b038216600090815260056020526040812080546001929061039d908490610afb565b6001600160a01b0383166105d95760405162461bcd60e51b8152602060048201526024808201527f45524332303a20617070726f76652066726f6d20746865207a65726f206164646044820152637265737360e01b6064820152608401610436565b6001600160a01b03821661063a5760405162461bcd60e51b815260206004820152602260248201527f45524332303a20617070726f766520746f20746865207a65726f206164647265604482015261737360f01b6064820152608401610436565b6001600160a01b0383811660008181526001602090815260408083209487168084529482529182902085905590518481527f8c5be1e5ebec7d5bd14f71427d1e84f3dd0314c0f7b2291e5b200ac8c7c3b925910160405180910390a3505050565b6001600160a01b038381166000908152600160209081526040808320938616835292905220546000198114610727578181101561071a5760405162461bcd60e51b815260206004820152601d60248201527f45524332303a20696e73756666696369656e7420616c6c6f77616e63650000006044820152606401610436565b6107278484848403610577565b50505050565b6001600160a01b0383166107915760405162461bcd60e51b815260206004820152602560248201527f45524332303a207472616e736665722066726f6d20746865207a65726f206164604482015264647265737360d81b6064820152608401610436565b6001600160a01b0382166107f35760405162461bcd60e51b815260206004820152602360248201527f45524332303a207472616e7366657220746f20746865207a65726f206164647260448201526265737360e81b6064820152608401610436565b6001600160a01b0383166000908152602081905260409020548181101561086b5760405162461bcd60e51b815260206004820152602660248201527f45524332303a207472616e7366657220616d6f756e7420657863656564732062604482015265616c616e636560d01b6064820152608401610436565b6001600160a01b038085166000908152602081905260408082208585039055918516815290812080548492906108a2908490610afb565b92505081905550826001600160a01b0316846001600160a01b03167fddf252ad1be2c89b69c2b068fc378daa952ba7f163c4a11628f55a4df523b3ef846040516108ee91815260200190565b60405180910390a3610727565b6001600160a01b0382166109515760405162461bcd60e51b815260206004820152601f60248201527f45524332303a206d696e7420746f20746865207a65726f2061646472657373006044820152606401610436565b80600260008282546109639190610afb565b90915550506001600160a01b03821660009081526020819052604081208054839290610990908490610afb565b90915550506040518181526001600160a01b038316906000907fddf252ad1be2c89b69c2b068fc378daa952ba7f163c4a11628f55a4df523b3ef9060200160405180910390a35050565b80356001600160a01b038116811461036657600080fd5b600060208284031215610a02578081fd5b610a0b826109da565b9392505050565b60008060408385031215610a24578081fd5b610a2d836109da565b9150610a3b602084016109da565b90509250929050565b600080600060608486031215610a58578081fd5b610a61846109da565b9250610a6f602085016109da565b9150604084013590509250925092565b60008060408385031215610a91578182fd5b610a9a836109da565b946020939093013593505050565b6000602080835283518082850152825b81811015610ad457858101830151858201604001528201610ab8565b81811115610ae55783604083870101525b50601f01601f1916929092016040019392505050565b60008219821115610b0e57610b0e610b65565b500190565b600082821015610b2557610b25610b65565b500390565b600281046001821680610b3e57607f821691505b60208210811415610b5f57634e487b7160e01b600052602260045260246000fd5b50919050565b634e487b7160e01b600052601160045260246000fdfea26469706673582212204797e75596058ce692616a5be35bcf41d4aa299298e4be3f4a9e46d45a1fe69f64736f6c63430008020033",
  "linkReferences": {},
  "deployedLinkReferences": {}
}