{
  "_format": "hh-sol-artifact-1",
  "contractName": "Token721",
  "sourceName": "contracts/Token721.sol",
  "abi": [
    {
      "inputs": [],
      "stateMutability": "nonpayable",
      "type": "constructor"
    },
    {
      "anonymous": false,
      "inputs": [
        {
          "indexed": true,
          "internalType": "address",
          "name": "owner",
          "type": "address"
        },
        {
          "indexed": true,
          "internalType": "address",
          "name": "approved",
          "type": "address"
        },
        {
          "indexed": true,
          "internalType": "uint256",
          "name": "tokenId",
          "type": "uint256"
        }
      ],
      "name": "Approval",
      "type": "event"
    },
    {
      "anonymous": false,
      "inputs": [
        {
          "indexed": true,
          "internalType": "address",
          "name": "owner",
          "type": "address"
        },
        {
          "indexed": true,
          "internalType": "address",
          "name": "operator",
          "type": "address"
        },
        {
          "indexed": false,
          "internalType": "bool",
          "name": "approved",
          "type": "bool"
        }
      ],
      "name": "ApprovalForAll",
      "type": "event"
    },
    {
      "anonymous": false,
      "inputs": [
        {
          "indexed": true,
          "internalType": "address",
          "name": "from",
          "type": "address"
        },
        {
          "indexed": true,
          "internalType": "address",
          "name": "to",
          "type": "address"
        },
        {
          "indexed": true,
          "internalType": "uint256",
          "name": "tokenId",
          "type": "uint256"
        }
      ],
      "name": "Transfer",
      "type": "event"
    },
    {
      "inputs": [
        {
          "internalType": "address",
          "name": "to",
          "type": "address"
        },
        {
          "internalType": "uint256",
          "name": "tokenId",
          "type": "uint256"
        }
      ],
      "name": "approve",
      "outputs": [],
      "stateMutability": "nonpayable",
      "type": "function"
    },
    {
      "inputs": [
        {
          "internalType": "address",
          "name": "player",
          "type": "address"
        },
        {
          "internalType": "string",
          "name": "tokenURI",
          "type": "string"
        }
      ],
      "name": "awardItem",
      "outputs": [
        {
          "internalType": "uint256",
          "name": "",
          "type": "uint256"
        }
      ],
      "stateMutability": "nonpayable",
      "type": "function"
    },
    {
      "inputs": [
        {
          "internalType": "address",
          "name": "owner",
          "type": "address"
        }
      ],
      "name": "balanceOf",
      "outputs": [
        {
          "internalType": "uint256",
          "name": "",
          "type": "uint256"
        }
      ],
      "stateMutability": "view",
      "type": "function"
    },
    {
      "inputs": [
        {
          "internalType": "uint256",
          "name": "tokenId",
          "type": "uint256"
        }
      ],
      "name": "getApproved",
      "outputs": [
        {
          "internalType": "address",
          "name": "",
          "type": "address"
        }
      ],
      "stateMutability": "view",
      "type": "function"
    },
    {
      "inputs": [],
      "name": "getTokenId",
      "outputs": [
        {
          "components": [
            {
              "internalType": "uint256",
              "name": "_value",
              "type": "uint256"
            }
          ],
          "internalType": "struct Counters.Counter",
          "name": "",
          "type": "tuple"
        }
      ],
      "stateMutability": "view",
      "type": "function"
    },
    {
      "inputs": [
        {
          "internalType": "address",
          "name": "owner",
          "type": "address"
        },
        {
          "internalType": "address",
          "name": "operator",
          "type": "address"
        }
      ],
      "name": "isApprovedForAll",
      "outputs": [
        {
          "internalType": "bool",
          "name": "",
          "type": "bool"
        }
      ],
      "stateMutability": "view",
      "type": "function"
    },
    {
      "inputs": [],
      "name": "name",
      "outputs": [
        {
          "internalType": "string",
          "name": "",
          "type": "string"
        }
      ],
      "stateMutability": "view",
      "type": "function"
    },
    {
      "inputs": [
        {
          "internalType": "uint256",
          "name": "tokenId",
          "type": "uint256"
        }
      ],
      "name": "ownerOf",
      "outputs": [
        {
          "internalType": "address",
          "name": "",
          "type": "address"
        }
      ],
      "stateMutability": "view",
      "type": "function"
    },
    {
      "inputs": [
        {
          "internalType": "address",
          "name": "from",
          "type": "address"
        },
        {
          "internalType": "address",
          "name": "to",
          "type": "address"
        },
        {
          "internalType": "uint256",
          "name": "tokenId",
          "type": "uint256"
        }
      ],
      "name": "safeTransferFrom",
      "outputs": [],
      "stateMutability": "nonpayable",
      "type": "function"
    },
    {
      "inputs": [
        {
          "internalType": "address",
          "name": "from",
          "type": "address"
        },
        {
          "internalType": "address",
          "name": "to",
          "type": "address"
        },
        {
          "internalType": "uint256",
          "name": "tokenId",
          "type": "uint256"
        },
        {
          "internalType": "bytes",
          "name": "_data",
          "type": "bytes"
        }
      ],
      "name": "safeTransferFrom",
      "outputs": [],
      "stateMutability": "nonpayable",
      "type": "function"
    },
    {
      "inputs": [
        {
          "internalType": "address",
          "name": "operator",
          "type": "address"
        },
        {
          "internalType": "bool",
          "name": "approved",
          "type": "bool"
        }
      ],
      "name": "setApprovalForAll",
      "outputs": [],
      "stateMutability": "nonpayable",
      "type": "function"
    },
    {
      "inputs": [
        {
          "internalType": "bytes4",
          "name": "interfaceId",
          "type": "bytes4"
        }
      ],
      "name": "supportsInterface",
      "outputs": [
        {
          "internalType": "bool",
          "name": "",
          "type": "bool"
        }
      ],
      "stateMutability": "view",
      "type": "function"
    },
    {
      "inputs": [],
      "name": "symbol",
      "outputs": [
        {
          "internalType": "string",
          "name": "",
          "type": "string"
        }
      ],
      "stateMutability": "view",
      "type": "function"
    },
    {
      "inputs": [
        {
          "internalType": "uint256",
          "name": "tokenId",
          "type": "uint256"
        }
      ],
      "name": "tokenURI",
      "outputs": [
        {
          "internalType": "string",
          "name": "",
          "type": "string"
        }
      ],
      "stateMutability": "view",
      "type": "function"
    },
    {
      "inputs": [
        {
          "internalType": "address",
          "name": "from",
          "type": "address"
        },
        {
          "internalType": "address",
          "name": "to",
          "type": "address"
        },
        {
          "internalType": "uint256",
          "name": "tokenId",
          "type": "uint256"
        }
      ],
      "name": "transferFrom",
      "outputs": [],
      "stateMutability": "nonpayable",
      "type": "function"
    }
  ],
  "bytecode": "0x60806040523480156200001157600080fd5b506040805180820182526008815267546f6b656e37323160c01b6020808301918252835180850190945260048452635437323160e01b9084015281519192916200005e916000916200007d565b508051620000749060019060208401906200007d565b50505062000160565b8280546200008b9062000123565b90600052602060002090601f016020900481019282620000af5760008555620000fa565b82601f10620000ca57805160ff1916838001178555620000fa565b82800160010185558215620000fa579182015b82811115620000fa578251825591602001919060010190620000dd565b50620001089291506200010c565b5090565b5b808211156200010857600081556001016200010d565b6002810460018216806200013857607f821691505b602082108114156200015a57634e487b7160e01b600052602260045260246000fd5b50919050565b61172080620001706000396000f3fe608060405234801561001057600080fd5b50600436106100f55760003560e01c80636352211e11610097578063b88d4fde11610066578063b88d4fde14610215578063c87b56dd14610228578063cf3783431461023b578063e985e9c51461024e576100f5565b80636352211e146101c657806370a08231146101d957806395d89b41146101fa578063a22cb46514610202576100f5565b8063081812fc116100d3578063081812fc14610160578063095ea7b31461018b57806323b872dd146101a057806342842e0e146101b3576100f5565b8063010a38f5146100fa57806301ffc9a71461012857806306fdde031461014b575b600080fd5b6040805160208082018352600090915281518082018352600754908190529151918252015b60405180910390f35b61013b610136366004611418565b61028a565b604051901515815260200161011f565b6101536102de565b60405161011f9190611500565b61017361016e366004611450565b610370565b6040516001600160a01b03909116815260200161011f565b61019e6101993660046113ef565b6103fd565b005b61019e6101ae3660046112a2565b610513565b61019e6101c13660046112a2565b610544565b6101736101d4366004611450565b61055f565b6101ec6101e7366004611256565b6105d6565b60405190815260200161011f565b61015361065d565b61019e610210366004611356565b61066c565b61019e6102233660046112dd565b61067b565b610153610236366004611450565b6106b3565b6101ec610249366004611390565b61082b565b61013b61025c366004611270565b6001600160a01b03918216600090815260056020908152604080832093909416825291909152205460ff1690565b60006001600160e01b031982166380ac58cd60e01b14806102bb57506001600160e01b03198216635b5e139f60e01b145b806102d657506301ffc9a760e01b6001600160e01b03198316145b90505b919050565b6060600080546102ed90611625565b80601f016020809104026020016040519081016040528092919081815260200182805461031990611625565b80156103665780601f1061033b57610100808354040283529160200191610366565b820191906000526020600020905b81548152906001019060200180831161034957829003601f168201915b5050505050905090565b600061037b82610863565b6103e15760405162461bcd60e51b815260206004820152602c60248201527f4552433732313a20617070726f76656420717565727920666f72206e6f6e657860448201526b34b9ba32b73a103a37b5b2b760a11b60648201526084015b60405180910390fd5b506000908152600460205260409020546001600160a01b031690565b60006104088261055f565b9050806001600160a01b0316836001600160a01b031614156104765760405162461bcd60e51b815260206004820152602160248201527f4552433732313a20617070726f76616c20746f2063757272656e74206f776e656044820152603960f91b60648201526084016103d8565b336001600160a01b03821614806104925750610492813361025c565b6105045760405162461bcd60e51b815260206004820152603860248201527f4552433732313a20617070726f76652063616c6c6572206973206e6f74206f7760448201527f6e6572206e6f7220617070726f76656420666f7220616c6c000000000000000060648201526084016103d8565b61050e8383610880565b505050565b61051d33826108ee565b6105395760405162461bcd60e51b81526004016103d890611565565b61050e8383836109d4565b61050e8383836040518060200160405280600081525061067b565b6000818152600260205260408120546001600160a01b0316806102d65760405162461bcd60e51b815260206004820152602960248201527f4552433732313a206f776e657220717565727920666f72206e6f6e657869737460448201526832b73a103a37b5b2b760b91b60648201526084016103d8565b60006001600160a01b0382166106415760405162461bcd60e51b815260206004820152602a60248201527f4552433732313a2062616c616e636520717565727920666f7220746865207a65604482015269726f206164647265737360b01b60648201526084016103d8565b506001600160a01b031660009081526003602052604090205490565b6060600180546102ed90611625565b610677338383610b70565b5050565b61068533836108ee565b6106a15760405162461bcd60e51b81526004016103d890611565565b6106ad84848484610c3f565b50505050565b60606106be82610863565b6107245760405162461bcd60e51b815260206004820152603160248201527f45524337323155524953746f726167653a2055524920717565727920666f72206044820152703737b732bc34b9ba32b73a103a37b5b2b760791b60648201526084016103d8565b6000828152600660205260408120805461073d90611625565b80601f016020809104026020016040519081016040528092919081815260200182805461076990611625565b80156107b65780601f1061078b576101008083540402835291602001916107b6565b820191906000526020600020905b81548152906001019060200180831161079957829003601f168201915b5050505050905060006107d460408051602081019091526000815290565b90508051600014156107e8575090506102d9565b81511561081a578082604051602001610802929190611494565b604051602081830303815290604052925050506102d9565b61082384610c72565b949350505050565b600061083b600780546001019055565b600061084660075490565b90506108528482610d49565b61085c8184610e7d565b9392505050565b6000908152600260205260409020546001600160a01b0316151590565b600081815260046020526040902080546001600160a01b0319166001600160a01b03841690811790915581906108b58261055f565b6001600160a01b03167f8c5be1e5ebec7d5bd14f71427d1e84f3dd0314c0f7b2291e5b200ac8c7c3b92560405160405180910390a45050565b60006108f982610863565b61095a5760405162461bcd60e51b815260206004820152602c60248201527f4552433732313a206f70657261746f7220717565727920666f72206e6f6e657860448201526b34b9ba32b73a103a37b5b2b760a11b60648201526084016103d8565b60006109658361055f565b9050806001600160a01b0316846001600160a01b031614806109a05750836001600160a01b031661099584610370565b6001600160a01b0316145b8061082357506001600160a01b0380821660009081526005602090815260408083209388168352929052205460ff16610823565b826001600160a01b03166109e78261055f565b6001600160a01b031614610a4b5760405162461bcd60e51b815260206004820152602560248201527f4552433732313a207472616e736665722066726f6d20696e636f72726563742060448201526437bbb732b960d91b60648201526084016103d8565b6001600160a01b038216610aad5760405162461bcd60e51b8152602060048201526024808201527f4552433732313a207472616e7366657220746f20746865207a65726f206164646044820152637265737360e01b60648201526084016103d8565b610ab8600082610880565b6001600160a01b0383166000908152600360205260408120805460019290610ae19084906115e2565b90915550506001600160a01b0382166000908152600360205260408120805460019290610b0f9084906115b6565b909155505060008181526002602052604080822080546001600160a01b0319166001600160a01b0386811691821790925591518493918716917fddf252ad1be2c89b69c2b068fc378daa952ba7f163c4a11628f55a4df523b3ef91a461050e565b816001600160a01b0316836001600160a01b03161415610bd25760405162461bcd60e51b815260206004820152601960248201527f4552433732313a20617070726f766520746f2063616c6c65720000000000000060448201526064016103d8565b6001600160a01b03838116600081815260056020908152604080832094871680845294825291829020805460ff191686151590811790915591519182527f17307eab39ab6107e8899845ad3d59bd9653f200f220920489ca2b5937696c31910160405180910390a3505050565b610c4a8484846109d4565b610c5684848484610f08565b6106ad5760405162461bcd60e51b81526004016103d890611513565b6060610c7d82610863565b610ce15760405162461bcd60e51b815260206004820152602f60248201527f4552433732314d657461646174613a2055524920717565727920666f72206e6f60448201526e3732bc34b9ba32b73a103a37b5b2b760891b60648201526084016103d8565b6000610cf860408051602081019091526000815290565b90506000815111610d18576040518060200160405280600081525061085c565b80610d2284611015565b604051602001610d33929190611494565b6040516020818303038152906040529392505050565b6001600160a01b038216610d9f5760405162461bcd60e51b815260206004820181905260248201527f4552433732313a206d696e7420746f20746865207a65726f206164647265737360448201526064016103d8565b610da881610863565b15610df55760405162461bcd60e51b815260206004820152601c60248201527f4552433732313a20746f6b656e20616c7265616479206d696e7465640000000060448201526064016103d8565b6001600160a01b0382166000908152600360205260408120805460019290610e1e9084906115b6565b909155505060008181526002602052604080822080546001600160a01b0319166001600160a01b03861690811790915590518392907fddf252ad1be2c89b69c2b068fc378daa952ba7f163c4a11628f55a4df523b3ef908290a4610677565b610e8682610863565b610ee95760405162461bcd60e51b815260206004820152602e60248201527f45524337323155524953746f726167653a2055524920736574206f66206e6f6e60448201526d32bc34b9ba32b73a103a37b5b2b760911b60648201526084016103d8565b6000828152600660209081526040909120825161050e92840190611130565b60006001600160a01b0384163b1561100a57604051630a85bd0160e11b81526001600160a01b0385169063150b7a0290610f4c9033908990889088906004016114c3565b602060405180830381600087803b158015610f6657600080fd5b505af1925050508015610f96575060408051601f3d908101601f19168201909252610f9391810190611434565b60015b610ff0573d808015610fc4576040519150601f19603f3d011682016040523d82523d6000602084013e610fc9565b606091505b508051610fe85760405162461bcd60e51b81526004016103d890611513565b805181602001fd5b6001600160e01b031916630a85bd0160e11b149050610823565b506001949350505050565b60608161103a57506040805180820190915260018152600360fc1b60208201526102d9565b8160005b8115611064578061104e81611660565b915061105d9050600a836115ce565b915061103e565b60008167ffffffffffffffff81111561108d57634e487b7160e01b600052604160045260246000fd5b6040519080825280601f01601f1916602001820160405280156110b7576020820181803683370190505b5090505b8415610823576110cc6001836115e2565b91506110d9600a8661167b565b6110e49060306115b6565b60f81b81838151811061110757634e487b7160e01b600052603260045260246000fd5b60200101906001600160f81b031916908160001a905350611129600a866115ce565b94506110bb565b82805461113c90611625565b90600052602060002090601f01602090048101928261115e57600085556111a4565b82601f1061117757805160ff19168380011785556111a4565b828001600101855582156111a4579182015b828111156111a4578251825591602001919060010190611189565b506111b09291506111b4565b5090565b5b808211156111b057600081556001016111b5565b600067ffffffffffffffff808411156111e4576111e46116bb565b604051601f8501601f19908116603f0116810190828211818310171561120c5761120c6116bb565b8160405280935085815286868601111561122557600080fd5b858560208301376000602087830101525050509392505050565b80356001600160a01b03811681146102d957600080fd5b600060208284031215611267578081fd5b61085c8261123f565b60008060408385031215611282578081fd5b61128b8361123f565b91506112996020840161123f565b90509250929050565b6000806000606084860312156112b6578081fd5b6112bf8461123f565b92506112cd6020850161123f565b9150604084013590509250925092565b600080600080608085870312156112f2578081fd5b6112fb8561123f565b93506113096020860161123f565b925060408501359150606085013567ffffffffffffffff81111561132b578182fd5b8501601f8101871361133b578182fd5b61134a878235602084016111c9565b91505092959194509250565b60008060408385031215611368578182fd5b6113718361123f565b915060208301358015158114611385578182fd5b809150509250929050565b600080604083850312156113a2578182fd5b6113ab8361123f565b9150602083013567ffffffffffffffff8111156113c6578182fd5b8301601f810185136113d6578182fd5b6113e5858235602084016111c9565b9150509250929050565b60008060408385031215611401578182fd5b61140a8361123f565b946020939093013593505050565b600060208284031215611429578081fd5b813561085c816116d1565b600060208284031215611445578081fd5b815161085c816116d1565b600060208284031215611461578081fd5b5035919050565b600081518084526114808160208601602086016115f9565b601f01601f19169290920160200192915050565b600083516114a68184602088016115f9565b8351908301906114ba8183602088016115f9565b01949350505050565b6001600160a01b03858116825284166020820152604081018390526080606082018190526000906114f690830184611468565b9695505050505050565b60006020825261085c6020830184611468565b60208082526032908201527f4552433732313a207472616e7366657220746f206e6f6e20455243373231526560408201527131b2b4bb32b91034b6b83632b6b2b73a32b960711b606082015260800190565b60208082526031908201527f4552433732313a207472616e736665722063616c6c6572206973206e6f74206f6040820152701ddb995c881b9bdc88185c1c1c9bdd9959607a1b606082015260800190565b600082198211156115c9576115c961168f565b500190565b6000826115dd576115dd6116a5565b500490565b6000828210156115f4576115f461168f565b500390565b60005b838110156116145781810151838201526020016115fc565b838111156106ad5750506000910152565b60028104600182168061163957607f821691505b6020821081141561165a57634e487b7160e01b600052602260045260246000fd5b50919050565b60006000198214156116745761167461168f565b5060010190565b60008261168a5761168a6116a5565b500690565b634e487b7160e01b600052601160045260246000fd5b634e487b7160e01b600052601260045260246000fd5b634e487b7160e01b600052604160045260246000fd5b6001600160e01b0319811681146116e757600080fd5b5056fea26469706673582212205fea08293bfcf4325d113a9b7aa716ff041d3682c3e7d0f7b59ed703215f1db064736f6c63430008020033",
  "linkReferences": {},
  "deployedLinkReferences": {}
}